:020000040000FA
:100000000C94B3000C94DB000C94DB000C94DB002C
:100010000C94DB000C94DB000C94DB000C94DB00F4
:100020000C94DB000C94DB000C94DB000C94DB00E4
:100030000C94DB000C94DB000C94DB000C94DB00D4
:100040000C9444040C94DB000C9412040C94EC0308
:100050000C94DB000C94DB000C94DB000C94DB00B4
:100060000C94DB000C94DB0000407A10F35A00A0E3
:10007000724E18090010A5D4E80000E87648170071
:1000800000E40B54020000CA9A3B000000E1F505B1
:10009000000080969800000040420F000000A086FB
:1000A00001000000102700000000E803000000002D
:1000B0006400000000000A000000000001000000D1
:1000C00000002C76D888DC674F0823DFC1DFAE59EB
:1000D000E1B1B796E5E3E453C63AE651997696E87E
:1000E000E6C28426EB898C9B62ED407C6FFCEFBC02
:1000F0009C9F40F2BAA56FA5F490055A2AF75C932D
:100100006B6CF9676DC11BFCE0E40D47FEF520E662
:10011000B500D0ED902E0300943577050080841E45
:10012000080000204E0A000000C80C333333330FA0
:10013000986E12831141EF8D2114893BE65516CF3D
:10014000FEE6DB18D1844B381BF77C1D901DA4BB49
:10015000E424203284725E228100C9F124ECA1E5FE
:100160003D278E04F80711241FBECFEFD8E0DEBF75
:10017000CDBF12E0A0E0B1E0E4E1FEE102C00590F5
:100180000D92A83AB107D9F723E0A8EAB2E001C07E
:100190001D92A837B207E1F710E0C2EBD0E004C02F
:1001A0002197FE010E94050DC13BD107C9F70E94AE
:1001B000D8040C94FD0E0C9400000895AF92BF92E9
:1001C000CF92DF92EF92FF920F931F93CF93DF9323
:1001D0006C017B018B01040F151FEB015E01AE1852
:1001E000BF08C017D10759F06991D601ED91FC9174
:1001F0000190F081E02DC6010995892B79F7C501A1
:10020000DF91CF911F910F91FF90EF90DF90CF90F2
:10021000BF90AF900895FC01538D448D252F30E0A1
:10022000842F90E0821B930B541710F0CF96089503
:1002300001970895FC01918D828D981761F0A28D30
:10024000AE0FBF2FB11D5D968C91928D9F5F9F73F6
:10025000928F90E008958FEF9FEF0895FC01918DAC
:10026000828D981731F0828DE80FF11D858D90E019
:1002700008958FEF9FEF0895FC01918D228D892FB6
:1002800090E0805C9F4F821B91098F73992708959E
:1002900089EB92E00E943C0121E0892B09F420E0E7
:1002A000822F089580E090E0892B29F00E94480178
:1002B00081110C9400000895FC01A48DA80FB92FA2
:1002C000B11DA35ABF4F2C91848D90E001968F737E
:1002D0009927848FA689B7892C93A089B1898C919D
:1002E000837080648C93938D848D981306C00288EC
:1002F000F389E02D80818F7D80830895EF92FF92B6
:100300000F931F93CF93DF93EC0181E0888F9B8D38
:100310008C8D98131AC0E889F989808185FF15C0F2
:100320009FB7F894EE89FF896083E889F989808115
:100330008370806480839FBF81E090E0DF91CF91E4
:100340001F910F91FF90EF900895F62E0B8D10E006
:100350000F5F1F4F0F731127E02E8C8D8E110CC075
:100360000FB607FCFACFE889F989808185FFF5CFC0
:10037000CE010E945C01F1CFEB8DEC0FFD2FF11D42
:10038000E35AFF4FF0829FB7F8940B8FEA89FB89FD
:1003900080818062CFCFCF93DF93EC01888D88235B
:1003A000B9F0AA89BB89E889F9898C9185FD03C0D8
:1003B000808186FD0DC00FB607FCF7CF8C9185FFBD
:1003C000F2CF808185FFEDCFCE010E945C01E9CFA5
:1003D000DF91CF9108953FB7F8948091AD0290914D
:1003E000AE02A091AF02B091B00226B5A89B05C0A5
:1003F0002F3F19F00196A11DB11D3FBFBA2FA92FA4
:10040000982F8827BC01CD01620F711D811D911DA0
:1004100042E0660F771F881F991F4A95D1F708950C
:1004200042E050E06DE171E089EB92E00C94DE0077
:10043000CF93DF93FC0101900020E9F73197AF01E2
:10044000481B590BBC0189EB92E00E94DE00EC01D5
:100450000E9410028C0F9D1FDF91CF910895CF93C2
:10046000DF93EC0180915603909157030097E9F0D8
:100470006881798161157105B1F0409158035091FF
:1004800059032C813D814217530768F00E94F60EF4
:100490008C819D8190935B0380935A031D821C8203
:1004A000DF91CF9108950E94A70D88819981909343
:1004B0005703809356038A819B81909359038093BD
:1004C00058038C819D8190935B0380935A0319821A
:1004D00018821B821A82E2CFCF93DF93EC018881CE
:1004E0009981009711F00E94A70D198218821D8230
:1004F0001C821B821A82DF91CF910895FC018081BA
:100500009181009711F00C94A70D08950F931F93FC
:10051000CF93DF93EC0188819981009759F02A816C
:100520003B812617370730F081E0DF91CF911F9193
:100530000F9108958B016F5F7F4F0E94300E0097DF
:1005400059F0998388831B830A832C813D81232B57
:1005500059F7FC011082E8CF80E0E7CFEF92FF92DD
:100560000F931F93CF93DF936115710541F480E0E2
:10057000DF91CF911F910F91FF90EF90089541155A
:100580005105B1F07B01EC010C811D81040F151F99
:10059000B8010E948602882351F3288139818C8119
:1005A0009D81B701820F931F0E94F60E1D830C835D
:1005B00081E0DECFCF93DF93EC01FB0101900020BF
:1005C000E9F73197AF01461B570B0E94AE0281112C
:1005D00003C0CE010E946C02CE01DF91CF9108953D
:1005E000FB0101900020E9F73197AF01461B570B43
:1005F0000C94AE02FB0144815581608171810C94A1
:10060000AE02EF92FF920F931F93CF93DF93EC0113
:100610007B018A01BA010E94860281110BC0CE01C2
:100620000E946C02CE01DF91CF911F910F91FF903C
:10063000EF9008951D830C83B701888199810E94F2
:10064000F60EF0CFFB0101900020E9F73197AF01E2
:10065000461B570B0C940103EF92FF920F931F93CD
:10066000CF93DF93CDB7DEB7A1970FB6F894DEBF77
:100670000FBECDBF7C01CB01BA01F7011182108200
:1006800013821282158214828E010F5F1F4F22E0A7
:1006900044E00E940C08009789F0BC01C7010E9449
:1006A0002203A1960FB6F894DEBF0FBECDBFDF9137
:1006B000CF911F910F91FF90EF900895C7010E9475
:1006C0006C02EFCF0F931F93CF93DF93CDB7DEB7BD
:1006D000A2970FB6F894DEBF0FBECDBF8C01CB0141
:1006E000BA01F801118210821382128215821482DB
:1006F0002AE0AE014F5F5F4F0E94D908BE016F5FD5
:100700007F4FC8010E942203A2960FB6F894DEBF65
:100710000FBECDBFDF91CF911F910F9108950F9321
:100720001F93CF93DF93CDB7DEB762970FB6F894E0
:10073000DEBF0FBECDBF8C01CB01F801118210824C
:1007400013821282158214824AE0BE016F5F7F4FCE
:100750000E94CE08BE016F5F7F4FC8010E94220336
:1007600062960FB6F894DEBF0FBECDBFDF91CF917A
:100770001F910F910895CF93DF93EC01FB01861732
:10078000970749F0608171816115710541F04481DD
:1007900055810E940103CE01DF91CF9108950E94FF
:1007A0006C02F9CFFC011182108213821282158231
:1007B00014820C94BB03FC011182108213821282FA
:1007C00015821482FB0101900020E9F73197AF01F7
:1007D000461B570B0C9401031F920F920FB60F92FA
:1007E00011242F933F934F935F936F937F938F9336
:1007F0009F93AF93BF93EF93FF9389EB92E00E9497
:100800005C01FF91EF91BF91AF919F918F917F918B
:100810006F915F914F913F912F910F900FBE0F906D
:100820001F9018951F920F920FB60F9211242F93BD
:100830008F939F93EF93FF93E091C902F091CA02C7
:100840008081E091CF02F091D00282FD1BC09081A7
:100850008091D2028F5F8F732091D302821741F073
:10086000E091D202F0E0E754FD4F958F8093D202E1
:10087000FF91EF919F918F912F910F900FBE0F904D
:100880001F9018958081F4CF1F920F920FB60F9290
:1008900011242F933F938F939F93AF93BF93809196
:1008A000A9029091AA02A091AB02B091AC02309142
:1008B000A80223E0230F2D3758F50196A11DB11D85
:1008C0002093A8028093A9029093AA02A093AB025E
:1008D000B093AC028091AD029091AE02A091AF02B4
:1008E000B091B0020196A11DB11D8093AD0290930D
:1008F000AE02A093AF02B093B002BF91AF919F91AF
:100900008F913F912F910F900FBE0F901F901895D0
:1009100026E8230F0296A11DB11DD2CFE9EBF2E02C
:100920001382128288EE93E0A0E0B0E08483958386
:10093000A683B7838FE091E09183808385EC90E07C
:100940009587848784EC90E09787868780EC90E099
:10095000918B808B81EC90E0938B828B82EC90E08A
:10096000958B848B86EC90E0978B868B118E128E04
:10097000138E148E6FE171E08EE693E00E94DB032C
:1009800060E271E08CE593E00E94DB0365E271E0D8
:1009900082E693E00E94DB036BE271E088E693E07D
:1009A0000E94DB036FE171E086E593E00C94DB03CA
:1009B000CF93DF93CDB7DEB762970FB6F894DEBF63
:1009C0000FBECDBF789484B5826084BD84B581604C
:1009D00084BD85B5826085BD85B5816085BD80910A
:1009E0006E00816080936E00109281008091810082
:1009F000826080938100809181008160809381007A
:100A0000809180008160809380008091B10084603B
:100A10008093B1008091B00081608093B00080919C
:100A20007A00846080937A0080917A00826080935B
:100A30007A0080917A00816080937A0080917A00B8
:100A4000806880937A001092C100E091C902F09111
:100A5000CA0282E08083E091C502F091C602108252
:100A6000E091C702F091C80287E680831092D1021C
:100A7000E091CD02F091CE0286E08083E091CB023E
:100A8000F091CC02808180618083E091CB02F09173
:100A9000CC02808188608083E091CB02F091CC020F
:100AA000808180688083E091CB02F091CC028081CC
:100AB0008F7D808380E391E00E94180282E691E0BE
:100AC0000E94180280E791E00E9418028FE791E0EF
:100AD0000E94180280E480937C0080917A008064F8
:100AE00080937A0080917A0086FDFCCF8091780017
:100AF00060917900762F682F072E000C880B990BD8
:100B0000611571058105910511F00E94C50823E06A
:100B1000422E512C612C712C00E010E096E0392E11
:100B200089EB92E00E943C01892B09F431C289EBE8
:100B300092E00E941A0180930001883729F08A36DA
:100B400019F0833609F024C20E94760823E630E0CB
:100B500040E050E00E94F90B6F5F7F4F8F4F9F4F37
:100B60006093B5027093B6028093B7029093B80277
:100B70000E9476082FE037E240E050E00E94F90B37
:100B80006F5F7F4F8F4F9F4F0E946D0B20E030E0D3
:100B900048EC52E40E94930C6093B1027093B2024D
:100BA0008093B3029093B4020E947608A30192014D
:100BB0000E94F90B369E9001379E300D1124B90129
:100BC000645A7C4F8EE693E00E94BB038091000143
:100BD0008A3609F40AC1883709F46EC0833609F0F1
:100BE000C9C16FE171E0CE0107960E94DB0362E0AC
:100BF00070E0CE0101960E948F03BE016F5F7F4FB0
:100C0000CE0107960E94FA02CE0101960E947E0252
:100C100065EA72E0CE0107960E94F0024091B502AB
:100C20005091B6026091B7027091B802CE01019660
:100C30000E946203BE016F5F7F4FCE0107960E9444
:100C4000FA02CE0101960E947E0265EA72E0CE01B0
:100C500007960E94F0026EE673E0CE0101960E94B4
:100C6000D203BE016F5F7F4FCE0107960E94FA024A
:100C7000CE0101960E947E0265EA72E0CE010796DF
:100C80000E94F0024091B1025091B2026091B30211
:100C90007091B402CE0101960E942C03BE016F5FD9
:100CA0007F4FCE0107960E94FA02CE0101960E9464
:100CB0007E026EE171E08EC06DE871E0CE010796B4
:100CC0000E94DB0367EA71E0CE0107960E94F00202
:100CD00063EB71E0CE0107960E94F00262E070E0E3
:100CE000CE0101960E948F03BE016F5F7F4FCE0140
:100CF00007960E94FA02CE0101960E947E0265ECE0
:100D000071E0CE0107960E94F00268ED71E0CE011D
:100D100007960E94F0024091B5025091B602609190
:100D2000B7027091B802CE0101960E946203BE0123
:100D30006F5F7F4FCE0107960E94FA02CE010196A7
:100D40000E947E026FEE71E0CE0107960E94F002D3
:100D500066E072E0CE0107960E94F0026EE673E054
:100D6000CE0101960E94D203BE016F5F7F4FCE017C
:100D700007960E94FA02CE0101960E947E0267E168
:100D800072E0CE0107960E94F00268E272E0CE01A6
:100D900007960E94F0024091B1025091B202609118
:100DA000B3027091B402CE0101960E942C03BE01E1
:100DB0006F5F7F4FCE0107960E94FA02CE01019627
:100DC0000E947E0263E372E0CE0107960E94F00269
:100DD0006EE372E0CE0107960E94F002CE01079604
:100DE0000E942F02CE010796C3C06BE472E0CE01D1
:100DF0000D960E94DB036EE472E0CE010D960E9418
:100E0000F00262E070E0CE0107960E948F03BE01FF
:100E1000695F7F4FCE0101960E94D20362E972E0C2
:100E2000CE0101960E94DA02BC01CE010D960E940D
:100E3000FA02CE0101960E947E02CE0107960E9420
:100E40007E0263E672E0CE010D960E94F0024091B0
:100E5000B5025091B6026091B7027091B802CE010E
:100E600007960E946203BE01695F7F4FCE01019623
:100E70000E94D20362E972E0CE0101960E94DA027A
:100E8000BC01CE010D960E94FA02CE0101960E948D
:100E90007E02CE0107960E947E026CE772E0CE01D0
:100EA0000D960E94F0026EE673E0CE0101960E945C
:100EB000D2036FE872E0CE0107960E94DB034D81FA
:100EC0005E8169817A81CE0107960E94AE0281110E
:100ED00004C0CE0107960E946C0261E972E0CE0167
:100EE00007960E94DA02BC01CE010D960E94FA021A
:100EF000CE0107960E947E02CE0101960E947E02DC
:100F000065E972E0CE010D960E94F0024091B102B7
:100F10005091B2026091B3027091B402CE01079673
:100F20000E942C03BE01695F7F4FCE0101960E9493
:100F3000D20362E972E0CE0101960E94DA02BC019E
:100F4000CE010D960E94FA02CE0101960E947E0209
:100F5000CE0107960E947E0262EA72E0CE010D96F3
:100F60000E94F002CE010D960E942F02CE010D9636
:100F70000E947E0240915A0350915B036091560398
:100F80007091570389EB92E00E94DE000E941002EC
:100F90000E94EB016B017C0184E6882E912CA12C30
:100FA000B12C0E94EB016C197D098E099F09683EE6
:100FB000734081059105A8F321E0821A9108A108E8
:100FC000B10888EEC80E83E0D81EE11CF11C811424
:100FD0009104A104B10429F70115110509F4A0CD6C
:100FE0000E944801882309F499CD0E94000096CD03
:100FF00086E593E00E947E0288E693E00E947E02EE
:1010000082E693E00E947E028CE593E00E947E02DD
:101010008EE693E00C947E02EF920F931F93CF9392
:10102000DF93E80134E047FD34E1042E000C550B5A
:1010300057FF03C0519541955109E32E022F242FEC
:10104000AE010E942409CE01DF91CF911F910F9133
:10105000EF9008958F929F92AF92BF92CF92DF92BE
:10106000EF92FF92CF93DF93EC01688179818A81BF
:101070009B81611571058105910521F464E279ED8B
:101080008BE597E02DE133EF41E050E00E94F90B52
:1010900049015A019B01AC01A7EAB1E40E94180C76
:1010A0006B017C01ACEEB4EFA50194010E94260C0B
:1010B000C60ED71EE81EF91EF7FE06C081E0C81A4C
:1010C000D108E10880E8F80AC882D982EA82FB8266
:1010D000C701B6019F77DF91CF91FF90EF90DF902E
:1010E000CF90BF90AF909F908F9008958F929F92D6
:1010F000AF92BF92CF92DF92EF92FF926091010187
:1011000070910201809103019091040161157105B4
:101110008105910521F464E279ED8BE597E02DE1FD
:1011200033EF41E050E00E94F90B49015A019B0165
:10113000AC01A7EAB1E40E94180C6B017C01ACEE93
:10114000B4EFA50194010E94260CC60ED71EE81E1E
:10115000F91EF7FE06C081E0C81AD108E10880E850
:10116000F80AC0920101D0920201E0920301F092CC
:101170000401C701B6019F77FF90EF90DF90CF90F9
:10118000BF90AF909F908F900895609301017093EE
:10119000020180930301909304010895BB274A3014
:1011A00031F4992322F4BDE2909581959F4F0C94E0
:1011B0000B09BB272A3051F4992342F4BDE29095E4
:1011C0008095709561957F4F8F4F9F4F0C94E908E4
:1011D000BB27FA01A62F6217710581059105330B14
:1011E00030FB66F0AA27660F771F881F991FAA1F7A
:1011F000A21710F0A21B63953850A9F7A05DAA337F
:1012000008F0A95DA19336F7B111B1931082CA011C
:101210000C945B0BBB27FB015527AA27880F991F4E
:10122000AA1FA41710F0A41B83955051B9F7A05D15
:10123000AA3308F0A95DA193009779F7B111B19392
:101240001192CB010C945B0BA9E0B0E0EAE2F9E06B
:101250000C94310C6A01F22EB02E102FFBE3AF2E4E
:10126000A01608F41BE31F5F012F27E0AE014F5FBC
:101270005F4F0E94830ABC018981982F9970913039
:1012800009F43FC09BE2E1FC04C09E2D9170E0FC9C
:101290003AC05E2D5071E82FE87083FF46C084E0AD
:1012A000911101C083E0EF2DE81B8F1508F0E0E0FD
:1012B000D6018E2F20E2552351F1992329F0D60132
:1012C0009C93C60101966C0196012D5F3F4FE2FE93
:1012D00024C08EE4D6018C9391E411969C931197CF
:1012E00012968C93D9018E2F90E281111BC0E20FD0
:1012F000F32FF11D10828EEF9FEF2996ECE00C94F6
:101300004D0C9DE2C6CF90E2C4CF2D938150811148
:10131000FCCFCE0ED11CE0E0D0CF8EE6D6018C9370
:1013200091E6DBCF9D938150E0CF482F447082FF40
:101330003DC084E0911101C083E08F1510F4EF2DC2
:10134000E81BD6018E2F20E2552309F1992329F0BD
:10135000D6019C93C60101966C0196012D5F3F4F0B
:10136000E2FE1BC089E4D6018C938EE411968C9327
:10137000119786E412968C93D9018E2F90E28823E0
:1013800009F4B5CF9D938150FACF2D9381508111EF
:10139000FCCFCE0ED11CE0E0D9CF89E6D6018C93EC
:1013A0008EE611968C93119786E6E4CF9B0177FF2A
:1013B00002C030E020E0A1E0B0E0911102C0B0E056
:1013C000A0E0F9013196AE0FBF1F8B2C912CBB20F2
:1013D00009F461C05401EFEFAE1ABE0AAA0DBB1D9D
:1013E000FA161B0619F014F04F2D4A1B511188C034
:1013F000E3FC59C07601A42FB0E2A1114FC0C40E86
:10140000D11C992309F45BC040E0D6011196F60186
:1014100090836D01552309F448C0012F060F9A816E
:10142000582F507184FF03C0913309F401501016F6
:101430000CF047C0093008F008E0EEE2FE2E5B0138
:10144000A01AB10885019194819491082F3F320729
:1014500029F4D601FC92F60131966F0162177307E9
:1014600094F1021713077CF5DB01A21BB30BAA242E
:10147000A394B12CAC0EBD1EAA0DBB1D11968C9170
:1014800021503109D601119628153905F4F0F601DD
:1014900080836D01DBCFB12CA12CA0CFF701B193DC
:1014A0007F01A150AACF9111B0CFD601942F50E364
:1014B00002C05D9391509111FCCFC40ED11C40E04D
:1014C000ACCF01E0BACF80E3DBCF6217730731F412
:1014D000963388F4953311F4552369F0F60180832F
:1014E000FD01842F90E2811108C0A40FB11D1C9250
:1014F00090E080E002CF81E3F1CF91938150F3CF70
:10150000911183CF8ACF283008F027E03327DA0102
:10151000990F311D87FD916000966105710539F4C1
:1015200032602E5F3D9330E32A95E1F708959F3FA7
:1015300030F080387105610509F03C5F3C5F3D93F8
:10154000913008F08068911DDF93CF931F930F9324
:10155000FF92EF92192F987F9695E92F9695969581
:10156000E90FFF27EE53FF4F99273327EE24FF247F
:10157000A701E70105900894079428F4360FE71EA9
:10158000F81E491F511D660F771F881F991F06946B
:10159000A1F70590079428F4E70EF81E491F561F7F
:1015A000C11D770F881F991F661F0694A1F705902C
:1015B000079428F4F80E491F561FC71FD11D880F26
:1015C000991F661F771F0694A1F70590079420F4D2
:1015D000490F561FC71FD81F990F661F771F881FF7
:1015E0000694A9F784911095177041F0D695C79588
:1015F00057954795F794E7941A95C1F7E8E6F0E018
:1016000068941590159135916591959105907FE2BB
:101610007395E118F10A430B560BC90BD009C0F7BB
:10162000E10CF11E431F561FC91FD01D7EF47033FD
:1016300011F48A95E6CFE894015030F0080F0AF4CF
:101640000027021708F4202F2395022F7A3328F061
:1016500079E37D932A95E9F710C07D932A9589F661
:10166000069497956795379517951794E118F10AA1
:10167000430B560BC90BD00998F023957E917395B7
:101680007A3308F070E37C932013B8F77E91706191
:101690007D9330F0839571E37D9370E32A95E1F7B4
:1016A0001124EF90FF900F911F91CF91DF91992717
:1016B00087FD90950895DC01FC01672F71917723D8
:1016C000E1F7329704C07C916D9370836291AE17FD
:1016D000BF07C8F30895E89409C097FB3EF49095BE
:1016E0008095709561957F4F8F4F9F4F9923A9F0FB
:1016F000F92F96E9BB279395F6958795779567958A
:10170000B795F111F8CFFAF4BB0F11F460FF1BC0CD
:101710006F5F7F4F8F4F9F4F16C0882311F096E960
:1017200011C0772321F09EE8872F762F05C066230E
:1017300071F096E8862F70E060E02AF09A95660FC7
:10174000771F881FDAF7880F9695879597F9089580
:1017500097F99F6780E870E060E008959FEF80EC64
:10176000089500240A941616170618060906089507
:1017700000240A9412161306140605060895092E6D
:101780000394000C11F4882352F0BB0F40F4BF2BDC
:1017900011F460FF04C06F5F7F4F8F4F9F4F08951C
:1017A00057FD9058440F551F59F05F3F71F0479512
:1017B000880F97FB991F61F09F3F79F087950895F7
:1017C000121613061406551FF2CF4695F1DF08C016
:1017D000161617061806991FF1CF86957105610533
:1017E00008940895E894BB2766277727CB0197F9DB
:1017F0000895052E97FB1EF400940E94100C57FDCF
:1018000007D00E94620C07FC03D04EF40C94100C1D
:1018100050954095309521953F4F4F4F5F4F08951C
:1018200090958095709561957F4F8F4F9F4F08954C
:101830000E94840CA59F900DB49F900DA49F800DD5
:10184000911D11240895B7FF0C94180C0E94180CD8
:10185000821B930B08952F923F924F925F926F924B
:101860007F928F929F92AF92BF92CF92DF92EF9230
:10187000FF920F931F93CF93DF93CDB7DEB7CA1BB1
:10188000DB0B0FB6F894DEBF0FBECDBF09942A88DC
:10189000398848885F846E847D848C849B84AA8484
:1018A000B984C884DF80EE80FD800C811B81AA8111
:1018B000B981CE0FD11D0FB6F894DEBF0FBECDBFDC
:1018C000ED010895A1E21A2EAA1BBB1BFD010DC05C
:1018D000AA1FBB1FEE1FFF1FA217B307E407F507E0
:1018E00020F0A21BB30BE40BF50B661F771F881FBC
:1018F000991F1A9469F760957095809590959B0152
:10190000AC01BD01CF010895A29FB001B39FC001FA
:10191000A39F700D811D1124911DB29F700D811D1B
:101920001124911D08950E94A70C0C94BF0B0E94D6
:10193000B80B58F00E94B10B40F029F45F3F29F03A
:101940000C94A80B51110C94F30B0C94AE0B0E9449
:10195000D00B68F39923B1F3552391F3951B550BE5
:10196000BB27AA2762177307840738F09F5F5F4F72
:10197000220F331F441FAA1FA9F335D00E2E3AF0B1
:10198000E0E832D091505040E695001CCAF72BD0C9
:10199000FE2F29D0660F771F881FBB1F261737071A
:1019A0004807AB07B0E809F0BB0B802DBF01FF274C
:1019B00093585F4F3AF09E3F510578F00C94A80B76
:1019C0000C94F30B5F3FE4F3983ED4F38695779540
:1019D0006795B795F7959F5FC9F7880F911D969505
:1019E000879597F90895E1E0660F771F881FBB1F61
:1019F000621773078407BA0720F0621B730B840B0E
:101A0000BA0BEE1F88F7E0950895EE0FFF1F0590C3
:101A1000F491E02D09940F931F93CF93DF938230BD
:101A2000910510F482E090E0E0917603F091770365
:101A300030E020E0B0E0A0E0309799F421153105C6
:101A400009F44AC0281B390B24303105D8F58A81A6
:101A50009B816115710589F1FB0193838283FE01EE
:101A600011C0408151810281138148175907E0F06C
:101A70004817590799F4109761F012960C93129732
:101A800013961C933296CF01DF91CF911F910F9146
:101A900008950093760310937703F4CF2115310551
:101AA00051F04217530738F0A901DB019A01BD013B
:101AB000DF01F801C1CFEF01F9CF90937703809355
:101AC0007603CDCFFE01E20FF31F81939193225055
:101AD000310939832883D7CF20917403309175035E
:101AE000232B41F4209107013091080130937503B5
:101AF00020937403209105013091060121153105D1
:101B000041F42DB73EB74091090150910A01241BC1
:101B1000350BE0917403F0917503E217F307A0F41D
:101B20002E1B3F0B2817390778F0AC014E5F5F4F33
:101B30002417350748F04E0F5F1F509375034093ED
:101B40007403819391939FCFF0E0E0E09CCFCF931B
:101B5000DF930097E9F0FC01329713821282A09183
:101B60007603B0917703ED0130E020E01097A1F407
:101B700020813181820F931F20917403309175036E
:101B80002817390709F061C0F0937503E0937403D7
:101B9000DF91CF910895EA01CE17DF07E8F54A817A
:101BA0005B819E0141155105B1F7E901FB83EA8391
:101BB00049915991C40FD51FEC17FD0761F480813D
:101BC00091810296840F951FE90199838883828110
:101BD00093819B838A83F0E0E0E012968D919C9143
:101BE00013970097B9F52D913C911197CD0102966D
:101BF000820F931F209174033091750328173907C2
:101C000039F6309751F51092770310927603B0931E
:101C10007503A0937403BCCFD383C28340815181E9
:101C2000840F951FC817D90761F44E5F5F4F8881F5
:101C30009981480F591F518340838A819B819383E7
:101C400082832115310509F0B0CFF0937703E0933B
:101C500076039ECFFD01DC01C0CF13821282D7CF65
:101C6000B0E0A0E0E6E3FEE00C942D0C8C010097C0
:101C700051F4CB010E940B0D8C01C801CDB7DEB72A
:101C8000E0E10C94490CFC01E60FF71F9C01225087
:101C90003109E217F30708F49DC0D901CD91DC9119
:101CA0001197C617D70798F0C530D10530F3CE018C
:101CB00004978617970708F3C61BD70B2297C19383
:101CC000D1936D937C93CF010E94A70DD6CF5B017A
:101CD000AC1ABD0A4C018C0E9D1EA0917603B091EA
:101CE0007703512C412CF12CE12C109731F5809188
:101CF0007403909175038815990509F05CC0461628
:101D0000570608F058C08091050190910601009790
:101D100041F48DB79EB74091090150910A01841B8F
:101D2000950BE817F90708F055C0F0937503E09399
:101D30007403F90171836083A0CF8D919C911197F9
:101D400012966C90129713967C901397A815B9056C
:101D500059F56C0142E0C40ED11CCA14DB0420F119
:101D6000AC014A195B09DA011296159780F062827C
:101D7000738251834083D9016D937C93E114F10404
:101D800071F0D7011396FC93EE93129776CF2296BB
:101D90008C0F9D1FF90191838083F301EFCFF093A6
:101DA0007703E093760369CF4816590608F42C01AF
:101DB0007D01D3019ACFCB010E940B0D7C010097CE
:101DC00049F0AE01B8010E94ED0EC8010E94A70DB6
:101DD000870153CF10E000E050CFFB01DC0102C0CF
:101DE00001900D9241505040D8F70895FB01DC015D
:101DF00001900D920020E1F7089510E0C2EBD0E0D1
:101E000004C0FE010E94050D2196C33BD107C9F70E
:101E1000F894FFCF2001000000000078038000004C
:101E20000000007E01DE000B01CB013C011A012EF7
:101E3000010D0A0062616A6F006D6564696F00617F
:101E40006C746F00496E6963696F20646520736B01
:101E5000657463683A20657363756368612F6765AD
:101E60006E657261206E756D65726F20616C656163
:101E7000746F72696F00783A20636164656E6120E7
:101E8000584D4C006A3A20636164656E61204A7364
:101E90006F6E00633A20636164656E612043535640
:101EA000003C3F786D6C2076657273696F6E203DE3
:101EB0002022312E3022203F3E0A003C72656769A5
:101EC0007374726F3E0A00203C646973706F7369AB
:101ED0007469766F5F69643E003C2F646973706F4C
:101EE00073697469766F5F69643E0A0020203C70F4
:101EF0006F7263656E74616A655F76616C76756C2E
:101F0000613E003C2F706F7263656E74616A655F3D
:101F100076616C76756C613E0A0020203C657374B6
:101F200061646F5F6E6976656C3E003C2F6573740B
:101F300061646F5F6E6976656C3E0A0020203C63C9
:101F4000617564616C3E003C2F63617564616C3E39
:101F50000A003C2F726567697374726F3E0A007BDA
:101F60000A00202022646973706F73697469766F48
:101F70005F6964223A2000202022706F7263656ED0
:101F800074616A655F76616C76756C61223A2000D7
:101F900020202265737461646F5F6E6976656C22C0
:101FA0003A20002200222C0A00202022636175645E
:0C1FB000616C223A20007D0A002C000029
:107E0000112484B714BE81FFF0D085E080938100F7
:107E100082E08093C00088E18093C10086E0809377
:107E2000C20080E18093C4008EE0C9D0259A86E02C
:107E300020E33CEF91E0309385002093840096BBD3
:107E4000B09BFECF1D9AA8958150A9F7CC24DD24C4
:107E500088248394B5E0AB2EA1E19A2EF3E0BF2EE7
:107E6000A2D0813461F49FD0082FAFD0023811F036
:107E7000013811F484E001C083E08DD089C08234E0
:107E800011F484E103C0853419F485E0A6D080C0E4
:107E9000853579F488D0E82EFF2485D0082F10E0AE
:107EA000102F00270E291F29000F111F8ED06801E7
:107EB0006FC0863521F484E090D080E0DECF843638
:107EC00009F040C070D06FD0082F6DD080E0C81688
:107ED00080E7D80618F4F601B7BEE895C0E0D1E017
:107EE00062D089930C17E1F7F0E0CF16F0E7DF06D8
:107EF00018F0F601B7BEE89568D007B600FCFDCFD4
:107F0000A601A0E0B1E02C9130E011968C91119780
:107F100090E0982F8827822B932B1296FA010C0160
:107F200087BEE89511244E5F5F4FF1E0A038BF0790
:107F300051F7F601A7BEE89507B600FCFDCF97BE46
:107F4000E89526C08437B1F42ED02DD0F82E2BD052
:107F50003CD0F601EF2C8F010F5F1F4F84911BD097
:107F6000EA94F801C1F70894C11CD11CFA94CF0C13
:107F7000D11C0EC0853739F428D08EE10CD085E9AC
:107F80000AD08FE07ACF813511F488E018D01DD067
:107F900080E101D065CF982F8091C00085FFFCCF94
:107FA0009093C60008958091C00087FFFCCF809118
:107FB000C00084FD01C0A8958091C6000895E0E648
:107FC000F0E098E1908380830895EDDF803219F02E
:107FD00088E0F5DFFFCF84E1DECF1F93182FE3DFCA
:107FE0001150E9F7F2DF1F91089580E0E8DFEE27F6
:047FF000FF270994CA
:027FFE00040479
:00000001FF
